{
  "_format": "hh-sol-artifact-1",
  "contractName": "WavePortal",
  "sourceName": "contracts/WavePortal.sol",
  "abi": [
    {
      "inputs": [],
      "stateMutability": "payable",
      "type": "constructor"
    },
    {
      "anonymous": false,
      "inputs": [
        {
          "indexed": true,
          "internalType": "address",
          "name": "from",
          "type": "address"
        },
        {
          "indexed": false,
          "internalType": "uint256",
          "name": "timestamp",
          "type": "uint256"
        },
        {
          "indexed": false,
          "internalType": "string",
          "name": "message",
          "type": "string"
        }
      ],
      "name": "NewWave",
      "type": "event"
    },
    {
      "inputs": [
        {
          "internalType": "address",
          "name": "",
          "type": "address"
        }
      ],
      "name": "Winners",
      "outputs": [
        {
          "internalType": "uint256",
          "name": "timesWon",
          "type": "uint256"
        },
        {
          "internalType": "uint256",
          "name": "lastWin",
          "type": "uint256"
        }
      ],
      "stateMutability": "view",
      "type": "function"
    },
    {
      "inputs": [],
      "name": "getTotalWaves",
      "outputs": [
        {
          "internalType": "uint256",
          "name": "",
          "type": "uint256"
        }
      ],
      "stateMutability": "view",
      "type": "function"
    },
    {
      "inputs": [],
      "name": "getWavers",
      "outputs": [
        {
          "components": [
            {
              "internalType": "address",
              "name": "waver",
              "type": "address"
            },
            {
              "internalType": "string",
              "name": "message",
              "type": "string"
            },
            {
              "internalType": "uint256",
              "name": "timestamp",
              "type": "uint256"
            }
          ],
          "internalType": "struct WavePortal.Wave[]",
          "name": "",
          "type": "tuple[]"
        }
      ],
      "stateMutability": "view",
      "type": "function"
    },
    {
      "inputs": [
        {
          "internalType": "string",
          "name": "_message",
          "type": "string"
        }
      ],
      "name": "wave",
      "outputs": [
        {
          "internalType": "string",
          "name": "",
          "type": "string"
        }
      ],
      "stateMutability": "nonpayable",
      "type": "function"
    }
  ],
  "bytecode": "0x6080604052600a6001556019600360006101000a81548160ff021916908360ff16021790555060038060016101000a81548160ff021916908360ff1602179055506200006f60405180606001604052806036815260200162001886603691396200009760201b620008441760201c565b606444426200007f9190620001e4565b6200008b919062000281565b60028190555062000328565b6200013781604051602401620000ae9190620001a4565b6040516020818303038152906040527f41304fac000000000000000000000000000000000000000000000000000000007bffffffffffffffffffffffffffffffffffffffffffffffffffffffff19166020820180517bffffffffffffffffffffffffffffffffffffffffffffffffffffffff83818316178352505050506200013a60201b60201c565b50565b60008151905060006a636f6e736f6c652e6c6f679050602083016000808483855afa5050505050565b60006200017082620001c8565b6200017c8185620001d3565b93506200018e8185602086016200024b565b620001998162000317565b840191505092915050565b60006020820190508181036000830152620001c0818462000163565b905092915050565b600081519050919050565b600082825260208201905092915050565b6000620001f18262000241565b9150620001fe8362000241565b9250827fffffffffffffffffffffffffffffffffffffffffffffffffffffffffffffffff03821115620002365762000235620002b9565b5b828201905092915050565b6000819050919050565b60005b838110156200026b5780820151818401526020810190506200024e565b838111156200027b576000848401525b50505050565b60006200028e8262000241565b91506200029b8362000241565b925082620002ae57620002ad620002e8565b5b828206905092915050565b7f4e487b7100000000000000000000000000000000000000000000000000000000600052601160045260246000fd5b7f4e487b7100000000000000000000000000000000000000000000000000000000600052601260045260246000fd5b6000601f19601f8301169050919050565b61154e80620003386000396000f3fe608060405234801561001057600080fd5b506004361061004c5760003560e01c8063449d46c014610051578063635f29f8146100815780639a2cdc081461009f578063b11c56e6146100bd575b600080fd5b61006b60048036038101906100669190610c29565b6100ee565b6040516100789190610ed7565b60405180910390f35b610089610684565b6040516100969190610eb5565b60405180910390f35b6100a76107d5565b6040516100b4919061102c565b60405180910390f35b6100d760048036038101906100d29190610c00565b610820565b6040516100e5929190611077565b60405180910390f35b60606000655af3107a4000905042600154600460003373ffffffffffffffffffffffffffffffffffffffff1673ffffffffffffffffffffffffffffffffffffffff1681526020019081526020016000206001015461014c9190611167565b1061018c576040517f08c379a000000000000000000000000000000000000000000000000000000000815260040161018390610fec565b60405180910390fd5b600160008082825461019e9190611167565b925050819055506101e56040518060400160405280601d81526020017f2573206861732077617665642077697468206d6573736167653a20257300000081525033856108dd565b600560405180606001604052803373ffffffffffffffffffffffffffffffffffffffff16815260200185815260200142815250908060018154018082558091505060019003906000526020600020906003020160009091909190915060008201518160000160006101000a81548173ffffffffffffffffffffffffffffffffffffffff021916908373ffffffffffffffffffffffffffffffffffffffff16021790555060208201518160010190805190602001906102a4929190610ae0565b50604082015181600201555050606460025442446102c29190611167565b6102cc9190611167565b6102d6919061129e565b60028190555061031d6040518060400160405280601181526020017f52616e646f6d207365656420233a20256400000000000000000000000000000081525060025461097c565b47811115610360576040517f08c379a000000000000000000000000000000000000000000000000000000000815260040161035790610fcc565b60405180910390fd5b600360009054906101000a900460ff1660ff166002541161062d57600360019054906101000a900460ff1660ff16600460003373ffffffffffffffffffffffffffffffffffffffff1673ffffffffffffffffffffffffffffffffffffffff1681526020019081526020016000206000015410610411576040517f08c379a000000000000000000000000000000000000000000000000000000000815260040161040890610fac565b60405180910390fd5b6104516040518060400160405280601181526020017f20257320776f6e202564204574686572210000000000000000000000000000008152503383610a18565b60003373ffffffffffffffffffffffffffffffffffffffff168260405161047790610ea0565b60006040518083038185875af1925050503d80600081146104b4576040519150601f19603f3d011682016040523d82523d6000602084013e6104b9565b606091505b50509050806104fd576040517f08c379a00000000000000000000000000000000000000000000000000000000081526004016104f49061100c565b60405180910390fd5b6001600460003373ffffffffffffffffffffffffffffffffffffffff1673ffffffffffffffffffffffffffffffffffffffff16815260200190815260200160002060000160008282546105509190611167565b9250508190555042600460003373ffffffffffffffffffffffffffffffffffffffff1673ffffffffffffffffffffffffffffffffffffffff168152602001908152602001600020600101819055503373ffffffffffffffffffffffffffffffffffffffff167f5f7e16dc676677766a70e9c5628aa6c54ddb8b6e5188e2ae1e1f17f1ffbea71642866040516105e6929190611047565b60405180910390a26040518060400160405280600681526020017f57696e6e657200000000000000000000000000000000000000000000000000008152509250505061067f565b3373ffffffffffffffffffffffffffffffffffffffff167f5f7e16dc676677766a70e9c5628aa6c54ddb8b6e5188e2ae1e1f17f1ffbea7164285604051610675929190611047565b60405180910390a2505b919050565b60606005805480602002602001604051908101604052809291908181526020016000905b828210156107cc57838290600052602060002090600302016040518060600160405290816000820160009054906101000a900473ffffffffffffffffffffffffffffffffffffffff1673ffffffffffffffffffffffffffffffffffffffff1673ffffffffffffffffffffffffffffffffffffffff1681526020016001820180546107319061123b565b80601f016020809104026020016040519081016040528092919081815260200182805461075d9061123b565b80156107aa5780601f1061077f576101008083540402835291602001916107aa565b820191906000526020600020905b81548152906001019060200180831161078d57829003601f168201915b50505050508152602001600282015481525050815260200190600101906106a8565b50505050905090565b60006108186040518060400160405280601781526020017f5765206861766520256420746f74616c2077617665732100000000000000000081525060005461097c565b600054905090565b60046020528060005260406000206000915090508060000154908060010154905082565b6108da816040516024016108589190610ed7565b6040516020818303038152906040527f41304fac000000000000000000000000000000000000000000000000000000007bffffffffffffffffffffffffffffffffffffffffffffffffffffffff19166020820180517bffffffffffffffffffffffffffffffffffffffffffffffffffffffff8381831617835250505050610ab7565b50565b6109778383836040516024016108f593929190610ef9565b6040516020818303038152906040527fe0e9ad4f000000000000000000000000000000000000000000000000000000007bffffffffffffffffffffffffffffffffffffffffffffffffffffffff19166020820180517bffffffffffffffffffffffffffffffffffffffffffffffffffffffff8381831617835250505050610ab7565b505050565b610a148282604051602401610992929190610f7c565b6040516020818303038152906040527f9710a9d0000000000000000000000000000000000000000000000000000000007bffffffffffffffffffffffffffffffffffffffffffffffffffffffff19166020820180517bffffffffffffffffffffffffffffffffffffffffffffffffffffffff8381831617835250505050610ab7565b5050565b610ab2838383604051602401610a3093929190610f3e565b6040516020818303038152906040527f07c81217000000000000000000000000000000000000000000000000000000007bffffffffffffffffffffffffffffffffffffffffffffffffffffffff19166020820180517bffffffffffffffffffffffffffffffffffffffffffffffffffffffff8381831617835250505050610ab7565b505050565b60008151905060006a636f6e736f6c652e6c6f679050602083016000808483855afa5050505050565b828054610aec9061123b565b90600052602060002090601f016020900481019282610b0e5760008555610b55565b82601f10610b2757805160ff1916838001178555610b55565b82800160010185558215610b55579182015b82811115610b54578251825591602001919060010190610b39565b5b509050610b629190610b66565b5090565b5b80821115610b7f576000816000905550600101610b67565b5090565b6000610b96610b91846110c5565b6110a0565b905082815260208101848484011115610bae57600080fd5b610bb98482856111f9565b509392505050565b600081359050610bd081611501565b92915050565b600082601f830112610be757600080fd5b8135610bf7848260208601610b83565b91505092915050565b600060208284031215610c1257600080fd5b6000610c2084828501610bc1565b91505092915050565b600060208284031215610c3b57600080fd5b600082013567ffffffffffffffff811115610c5557600080fd5b610c6184828501610bd6565b91505092915050565b6000610c768383610e32565b905092915050565b610c87816111bd565b82525050565b610c96816111bd565b82525050565b6000610ca782611106565b610cb18185611129565b935083602082028501610cc3856110f6565b8060005b85811015610cff5784840389528151610ce08582610c6a565b9450610ceb8361111c565b925060208a01995050600181019050610cc7565b50829750879550505050505092915050565b6000610d1c82611111565b610d268185611145565b9350610d36818560208601611208565b610d3f8161138b565b840191505092915050565b6000610d5582611111565b610d5f8185611156565b9350610d6f818560208601611208565b610d788161138b565b840191505092915050565b6000610d90602583611156565b9150610d9b8261139c565b604082019050919050565b6000610db3604a83611156565b9150610dbe826113eb565b606082019050919050565b6000610dd6603e83611156565b9150610de182611460565b604082019050919050565b6000610df960008361113a565b9150610e04826114af565b600082019050919050565b6000610e1c602b83611156565b9150610e27826114b2565b604082019050919050565b6000606083016000830151610e4a6000860182610c7e565b5060208301518482036020860152610e628282610d11565b9150506040830151610e776040860182610e82565b508091505092915050565b610e8b816111ef565b82525050565b610e9a816111ef565b82525050565b6000610eab82610dec565b9150819050919050565b60006020820190508181036000830152610ecf8184610c9c565b905092915050565b60006020820190508181036000830152610ef18184610d4a565b905092915050565b60006060820190508181036000830152610f138186610d4a565b9050610f226020830185610c8d565b8181036040830152610f348184610d4a565b9050949350505050565b60006060820190508181036000830152610f588186610d4a565b9050610f676020830185610c8d565b610f746040830184610e91565b949350505050565b60006040820190508181036000830152610f968185610d4a565b9050610fa56020830184610e91565b9392505050565b60006020820190508181036000830152610fc581610d83565b9050919050565b60006020820190508181036000830152610fe581610da6565b9050919050565b6000602082019050818103600083015261100581610dc9565b9050919050565b6000602082019050818103600083015261102581610e0f565b9050919050565b60006020820190506110416000830184610e91565b92915050565b600060408201905061105c6000830185610e91565b818103602083015261106e8184610d4a565b90509392505050565b600060408201905061108c6000830185610e91565b6110996020830184610e91565b9392505050565b60006110aa6110bb565b90506110b6828261126d565b919050565b6000604051905090565b600067ffffffffffffffff8211156110e0576110df61135c565b5b6110e98261138b565b9050602081019050919050565b6000819050602082019050919050565b600081519050919050565b600081519050919050565b6000602082019050919050565b600082825260208201905092915050565b600081905092915050565b600082825260208201905092915050565b600082825260208201905092915050565b6000611172826111ef565b915061117d836111ef565b9250827fffffffffffffffffffffffffffffffffffffffffffffffffffffffffffffffff038211156111b2576111b16112cf565b5b828201905092915050565b60006111c8826111cf565b9050919050565b600073ffffffffffffffffffffffffffffffffffffffff82169050919050565b6000819050919050565b82818337600083830152505050565b60005b8381101561122657808201518184015260208101905061120b565b83811115611235576000848401525b50505050565b6000600282049050600182168061125357607f821691505b602082108114156112675761126661132d565b5b50919050565b6112768261138b565b810181811067ffffffffffffffff821117156112955761129461135c565b5b80604052505050565b60006112a9826111ef565b91506112b4836111ef565b9250826112c4576112c36112fe565b5b828206905092915050565b7f4e487b7100000000000000000000000000000000000000000000000000000000600052601160045260246000fd5b7f4e487b7100000000000000000000000000000000000000000000000000000000600052601260045260246000fd5b7f4e487b7100000000000000000000000000000000000000000000000000000000600052602260045260246000fd5b7f4e487b7100000000000000000000000000000000000000000000000000000000600052604160045260246000fd5b6000601f19601f8301169050919050565b7f596f75206861766520776f6e20746865206d617820616d6f756e74206f66207460008201527f696d657321000000000000000000000000000000000000000000000000000000602082015250565b7f5b2d5d2057686f6f70732c20747279696e6720746f207769746864726177206d60008201527f6f7265206574686572207468616e2074686520636f6e7472616374206861732060208201527f61636365737320746f2100000000000000000000000000000000000000000000604082015250565b7f596f75206e65656420746f20616c6c6f7720636f6f6c646f776e207065726f6960008201527f6420746f2070617373206265666f726520776176696e6720616761696e210000602082015250565b50565b7f5b2d5d204661696c656420746f207769746864726177206d6f6e65792066726f60008201527f6d20636f6e747261637421000000000000000000000000000000000000000000602082015250565b61150a816111bd565b811461151557600080fd5b5056fea2646970667358221220d464e35c8ef7458a0593b1dff0016fbfa1b2af9862dfe723d3f325a1c42add4f64736f6c63430008040033596f2049276d206120636f6e747261637420616e642049276d2067657474696e6720736d617274657220616e6420736d617274657221",
  "linkReferences": {},
  "deployedLinkReferences": {}
}