{
  "_format": "hh-sol-artifact-1",
  "contractName": "WavePortal",
  "sourceName": "contracts/WavePortal.sol",
  "abi": [
    {
      "inputs": [],
      "stateMutability": "payable",
      "type": "constructor"
    },
    {
      "anonymous": false,
      "inputs": [
        {
          "indexed": true,
          "internalType": "address",
          "name": "from",
          "type": "address"
        },
        {
          "indexed": false,
          "internalType": "uint256",
          "name": "timestamp",
          "type": "uint256"
        },
        {
          "indexed": false,
          "internalType": "string",
          "name": "message",
          "type": "string"
        },
        {
          "indexed": false,
          "internalType": "bool",
          "name": "winner",
          "type": "bool"
        }
      ],
      "name": "NewWave",
      "type": "event"
    },
    {
      "inputs": [
        {
          "internalType": "address",
          "name": "",
          "type": "address"
        }
      ],
      "name": "Winners",
      "outputs": [
        {
          "internalType": "uint256",
          "name": "timesWon",
          "type": "uint256"
        },
        {
          "internalType": "uint256",
          "name": "lastWin",
          "type": "uint256"
        }
      ],
      "stateMutability": "view",
      "type": "function"
    },
    {
      "inputs": [],
      "name": "getTotalWaves",
      "outputs": [
        {
          "internalType": "uint256",
          "name": "",
          "type": "uint256"
        }
      ],
      "stateMutability": "view",
      "type": "function"
    },
    {
      "inputs": [],
      "name": "getWavers",
      "outputs": [
        {
          "components": [
            {
              "internalType": "address",
              "name": "waver",
              "type": "address"
            },
            {
              "internalType": "string",
              "name": "message",
              "type": "string"
            },
            {
              "internalType": "uint256",
              "name": "timestamp",
              "type": "uint256"
            },
            {
              "internalType": "bool",
              "name": "winner",
              "type": "bool"
            }
          ],
          "internalType": "struct WavePortal.Wave[]",
          "name": "",
          "type": "tuple[]"
        }
      ],
      "stateMutability": "view",
      "type": "function"
    },
    {
      "inputs": [
        {
          "internalType": "string",
          "name": "_message",
          "type": "string"
        }
      ],
      "name": "wave",
      "outputs": [
        {
          "internalType": "string",
          "name": "",
          "type": "string"
        }
      ],
      "stateMutability": "nonpayable",
      "type": "function"
    }
  ],
  "bytecode": "0x6080604052600a6001556019600360006101000a81548160ff021916908360ff16021790555060038060016101000a81548160ff021916908360ff1602179055506200006f604051806060016040528060368152602001620019f3603691396200009760201b620009d11760201c565b606444426200007f9190620001e4565b6200008b919062000281565b60028190555062000328565b6200013781604051602401620000ae9190620001a4565b6040516020818303038152906040527f41304fac000000000000000000000000000000000000000000000000000000007bffffffffffffffffffffffffffffffffffffffffffffffffffffffff19166020820180517bffffffffffffffffffffffffffffffffffffffffffffffffffffffff83818316178352505050506200013a60201b60201c565b50565b60008151905060006a636f6e736f6c652e6c6f679050602083016000808483855afa5050505050565b60006200017082620001c8565b6200017c8185620001d3565b93506200018e8185602086016200024b565b620001998162000317565b840191505092915050565b60006020820190508181036000830152620001c0818462000163565b905092915050565b600081519050919050565b600082825260208201905092915050565b6000620001f18262000241565b9150620001fe8362000241565b9250827fffffffffffffffffffffffffffffffffffffffffffffffffffffffffffffffff03821115620002365762000235620002b9565b5b828201905092915050565b6000819050919050565b60005b838110156200026b5780820151818401526020810190506200024e565b838111156200027b576000848401525b50505050565b60006200028e8262000241565b91506200029b8362000241565b925082620002ae57620002ad620002e8565b5b828206905092915050565b7f4e487b7100000000000000000000000000000000000000000000000000000000600052601160045260246000fd5b7f4e487b7100000000000000000000000000000000000000000000000000000000600052601260045260246000fd5b6000601f19601f8301169050919050565b6116bb80620003386000396000f3fe608060405234801561001057600080fd5b506004361061004c5760003560e01c8063449d46c014610051578063635f29f8146100815780639a2cdc081461009f578063b11c56e6146100bd575b600080fd5b61006b60048036038101906100669190610db6565b6100ee565b6040516100789190611072565b60405180910390f35b6100896107f6565b6040516100969190611050565b60405180910390f35b6100a7610962565b6040516100b491906111a7565b60405180910390f35b6100d760048036038101906100d29190610d8d565b6109ad565b6040516100e5929190611200565b60405180910390f35b60606000655af3107a4000444261010591906112f0565b61010f9190611433565b9050600042600154600460003373ffffffffffffffffffffffffffffffffffffffff1673ffffffffffffffffffffffffffffffffffffffff1681526020019081526020016000206001015461016491906112f0565b106101a4576040517f08c379a000000000000000000000000000000000000000000000000000000000815260040161019b90611167565b60405180910390fd5b606460025442446101b591906112f0565b6101bf91906112f0565b6101c99190611433565b6002819055506102106040518060400160405280601181526020017f52616e646f6d207365656420233a202564000000000000000000000000000000815250600254610a6a565b47821115610253576040517f08c379a000000000000000000000000000000000000000000000000000000000815260040161024a90611147565b60405180910390fd5b600160008082825461026591906112f0565b925050819055506102ac6040518060400160405280601d81526020017f2573206861732077617665642077697468206d6573736167653a2025730000008152503386610b06565b600360009054906101000a900460ff1660ff166002541161067057600360019054906101000a900460ff1660ff16600460003373ffffffffffffffffffffffffffffffffffffffff1673ffffffffffffffffffffffffffffffffffffffff16815260200190815260200160002060000154101561063a576103636040518060400160405280601481526020017f202d2044257320776f6e202564204574686572210000000000000000000000008152503384610ba5565b6001905060003373ffffffffffffffffffffffffffffffffffffffff168360405161038d9061103b565b60006040518083038185875af1925050503d80600081146103ca576040519150601f19603f3d011682016040523d82523d6000602084013e6103cf565b606091505b5050905080610413576040517f08c379a000000000000000000000000000000000000000000000000000000000815260040161040a90611187565b60405180910390fd5b6001600460003373ffffffffffffffffffffffffffffffffffffffff1673ffffffffffffffffffffffffffffffffffffffff168152602001908152602001600020600001600082825461046691906112f0565b9250508190555042600460003373ffffffffffffffffffffffffffffffffffffffff1673ffffffffffffffffffffffffffffffffffffffff168152602001908152602001600020600101819055503373ffffffffffffffffffffffffffffffffffffffff167f6d1607feb02544462392cd79bc9fc3cea2a1dd50600d5b503009b84ae27748ca4287856040516104fe939291906111c2565b60405180910390a2600560405180608001604052803373ffffffffffffffffffffffffffffffffffffffff168152602001878152602001428152602001841515815250908060018154018082558091505060019003906000526020600020906004020160009091909190915060008201518160000160006101000a81548173ffffffffffffffffffffffffffffffffffffffff021916908373ffffffffffffffffffffffffffffffffffffffff16021790555060208201518160010190805190602001906105cd929190610c6d565b506040820151816002015560608201518160030160006101000a81548160ff02191690831515021790555050506040518060400160405280600681526020017f57696e6e6572000000000000000000000000000000000000000000000000000081525093505050506107f1565b61066f60405180606001604052806027815260200161165f6027913933600360019054906101000a900460ff1660ff16610ba5565b5b600560405180608001604052803373ffffffffffffffffffffffffffffffffffffffff168152602001868152602001428152602001831515815250908060018154018082558091505060019003906000526020600020906004020160009091909190915060008201518160000160006101000a81548173ffffffffffffffffffffffffffffffffffffffff021916908373ffffffffffffffffffffffffffffffffffffffff1602179055506020820151816001019080519060200190610737929190610c6d565b506040820151816002015560608201518160030160006101000a81548160ff02191690831515021790555050503373ffffffffffffffffffffffffffffffffffffffff167f6d1607feb02544462392cd79bc9fc3cea2a1dd50600d5b503009b84ae27748ca4286846040516107ae939291906111c2565b60405180910390a26040518060400160405280600581526020017f4c6f736572000000000000000000000000000000000000000000000000000000815250925050505b919050565b60606005805480602002602001604051908101604052809291908181526020016000905b8282101561095957838290600052602060002090600402016040518060800160405290816000820160009054906101000a900473ffffffffffffffffffffffffffffffffffffffff1673ffffffffffffffffffffffffffffffffffffffff1673ffffffffffffffffffffffffffffffffffffffff1681526020016001820180546108a3906113d0565b80601f01602080910402602001604051908101604052809291908181526020018280546108cf906113d0565b801561091c5780601f106108f15761010080835404028352916020019161091c565b820191906000526020600020905b8154815290600101906020018083116108ff57829003601f168201915b50505050508152602001600282015481526020016003820160009054906101000a900460ff1615151515815250508152602001906001019061081a565b50505050905090565b60006109a56040518060400160405280601781526020017f5765206861766520256420746f74616c20776176657321000000000000000000815250600054610a6a565b600054905090565b60046020528060005260406000206000915090508060000154908060010154905082565b610a67816040516024016109e59190611072565b6040516020818303038152906040527f41304fac000000000000000000000000000000000000000000000000000000007bffffffffffffffffffffffffffffffffffffffffffffffffffffffff19166020820180517bffffffffffffffffffffffffffffffffffffffffffffffffffffffff8381831617835250505050610c44565b50565b610b028282604051602401610a80929190611117565b6040516020818303038152906040527f9710a9d0000000000000000000000000000000000000000000000000000000007bffffffffffffffffffffffffffffffffffffffffffffffffffffffff19166020820180517bffffffffffffffffffffffffffffffffffffffffffffffffffffffff8381831617835250505050610c44565b5050565b610ba0838383604051602401610b1e93929190611094565b6040516020818303038152906040527fe0e9ad4f000000000000000000000000000000000000000000000000000000007bffffffffffffffffffffffffffffffffffffffffffffffffffffffff19166020820180517bffffffffffffffffffffffffffffffffffffffffffffffffffffffff8381831617835250505050610c44565b505050565b610c3f838383604051602401610bbd939291906110d9565b6040516020818303038152906040527f07c81217000000000000000000000000000000000000000000000000000000007bffffffffffffffffffffffffffffffffffffffffffffffffffffffff19166020820180517bffffffffffffffffffffffffffffffffffffffffffffffffffffffff8381831617835250505050610c44565b505050565b60008151905060006a636f6e736f6c652e6c6f679050602083016000808483855afa5050505050565b828054610c79906113d0565b90600052602060002090601f016020900481019282610c9b5760008555610ce2565b82601f10610cb457805160ff1916838001178555610ce2565b82800160010185558215610ce2579182015b82811115610ce1578251825591602001919060010190610cc6565b5b509050610cef9190610cf3565b5090565b5b80821115610d0c576000816000905550600101610cf4565b5090565b6000610d23610d1e8461124e565b611229565b905082815260208101848484011115610d3b57600080fd5b610d4684828561138e565b509392505050565b600081359050610d5d81611647565b92915050565b600082601f830112610d7457600080fd5b8135610d84848260208601610d10565b91505092915050565b600060208284031215610d9f57600080fd5b6000610dad84828501610d4e565b91505092915050565b600060208284031215610dc857600080fd5b600082013567ffffffffffffffff811115610de257600080fd5b610dee84828501610d63565b91505092915050565b6000610e038383610fba565b905092915050565b610e1481611346565b82525050565b610e2381611346565b82525050565b6000610e348261128f565b610e3e81856112b2565b935083602082028501610e508561127f565b8060005b85811015610e8c5784840389528151610e6d8582610df7565b9450610e78836112a5565b925060208a01995050600181019050610e54565b50829750879550505050505092915050565b610ea781611358565b82525050565b610eb681611358565b82525050565b6000610ec78261129a565b610ed181856112ce565b9350610ee181856020860161139d565b610eea81611520565b840191505092915050565b6000610f008261129a565b610f0a81856112df565b9350610f1a81856020860161139d565b610f2381611520565b840191505092915050565b6000610f3b604a836112df565b9150610f4682611531565b606082019050919050565b6000610f5e603e836112df565b9150610f69826115a6565b604082019050919050565b6000610f816000836112c3565b9150610f8c826115f5565b600082019050919050565b6000610fa4602b836112df565b9150610faf826115f8565b604082019050919050565b6000608083016000830151610fd26000860182610e0b565b5060208301518482036020860152610fea8282610ebc565b9150506040830151610fff604086018261101d565b5060608301516110126060860182610e9e565b508091505092915050565b61102681611384565b82525050565b61103581611384565b82525050565b600061104682610f74565b9150819050919050565b6000602082019050818103600083015261106a8184610e29565b905092915050565b6000602082019050818103600083015261108c8184610ef5565b905092915050565b600060608201905081810360008301526110ae8186610ef5565b90506110bd6020830185610e1a565b81810360408301526110cf8184610ef5565b9050949350505050565b600060608201905081810360008301526110f38186610ef5565b90506111026020830185610e1a565b61110f604083018461102c565b949350505050565b600060408201905081810360008301526111318185610ef5565b9050611140602083018461102c565b9392505050565b6000602082019050818103600083015261116081610f2e565b9050919050565b6000602082019050818103600083015261118081610f51565b9050919050565b600060208201905081810360008301526111a081610f97565b9050919050565b60006020820190506111bc600083018461102c565b92915050565b60006060820190506111d7600083018661102c565b81810360208301526111e98185610ef5565b90506111f86040830184610ead565b949350505050565b6000604082019050611215600083018561102c565b611222602083018461102c565b9392505050565b6000611233611244565b905061123f8282611402565b919050565b6000604051905090565b600067ffffffffffffffff821115611269576112686114f1565b5b61127282611520565b9050602081019050919050565b6000819050602082019050919050565b600081519050919050565b600081519050919050565b6000602082019050919050565b600082825260208201905092915050565b600081905092915050565b600082825260208201905092915050565b600082825260208201905092915050565b60006112fb82611384565b915061130683611384565b9250827fffffffffffffffffffffffffffffffffffffffffffffffffffffffffffffffff0382111561133b5761133a611464565b5b828201905092915050565b600061135182611364565b9050919050565b60008115159050919050565b600073ffffffffffffffffffffffffffffffffffffffff82169050919050565b6000819050919050565b82818337600083830152505050565b60005b838110156113bb5780820151818401526020810190506113a0565b838111156113ca576000848401525b50505050565b600060028204905060018216806113e857607f821691505b602082108114156113fc576113fb6114c2565b5b50919050565b61140b82611520565b810181811067ffffffffffffffff8211171561142a576114296114f1565b5b80604052505050565b600061143e82611384565b915061144983611384565b92508261145957611458611493565b5b828206905092915050565b7f4e487b7100000000000000000000000000000000000000000000000000000000600052601160045260246000fd5b7f4e487b7100000000000000000000000000000000000000000000000000000000600052601260045260246000fd5b7f4e487b7100000000000000000000000000000000000000000000000000000000600052602260045260246000fd5b7f4e487b7100000000000000000000000000000000000000000000000000000000600052604160045260246000fd5b6000601f19601f8301169050919050565b7f5b2d5d2057686f6f70732c20747279696e6720746f207769746864726177206d60008201527f6f7265206574686572207468616e2074686520636f6e7472616374206861732060208201527f61636365737320746f2100000000000000000000000000000000000000000000604082015250565b7f596f75206e65656420746f20616c6c6f7720636f6f6c646f776e207065726f6960008201527f6420746f2070617373206265666f726520776176696e6720616761696e210000602082015250565b50565b7f5b2d5d204661696c656420746f207769746864726177206d6f6e65792066726f60008201527f6d20636f6e747261637421000000000000000000000000000000000000000000602082015250565b61165081611346565b811461165b57600080fd5b5056fe25732068617320776f6e20746865206d617820616d6f756e742028256429206f662074696d6573a2646970667358221220dd55090ebad2104a7575d4497826bd7160c44cbd3bff3fd267ec7aa792a524b164736f6c63430008040033596f2049276d206120636f6e747261637420616e642049276d2067657474696e6720736d617274657220616e6420736d617274657221",
  "linkReferences": {},
  "deployedLinkReferences": {}
}